:020000040800F2
:100000000000032049310008BD100008BF1000089F
:10001000C1100008C3100008C5100008000000004F
:10002000000000000000000000000000C7100008F1
:10003000C910000800000000CB100008CD10000817
:100040009931000899310008993100089931000868
:100050009931000899310008993100089931000858
:100060009931000899310008993100089931000848
:100070009931000899310008993100089931000838
:1000800099310008D510000899310008993100080D
:100090009931000899310008993100089931000818
:1000A0009931000899310008993100089931000808
:1000B00099310008993100089931000899310008F8
:1000C00099310008993100089931000899310008E8
:1000D00099310008993100089931000899310008D8
:1000E00099310008993100089931000899310008C8
:1000F00099310008993100089931000899310008B8
:1001000099310008993100089931000899310008A7
:100110009931000899310008993100089931000897
:10012000E51000089931000899310008993100085C
:100130009931000899310008993100089931000877
:100140009931000899310008993100089931000867
:100150009931000899310008993100089931000857
:100160009931000899310008993100089931000847
:100170009931000899310008993100080000000009
:100180009931000899310008993100089931000827
:100190009931000899310008993100089931000817
:0C01A000993100089931000899310008DD
:1001B00081F0004102E000BF83F0004330B54FEA18
:1001C00041044FEA430594EA050F08BF90EA020F85
:1001D0001FBF54EA000C55EA020C7FEA645C7FEA18
:1001E000655C00F0E2804FEA5454D4EB5555B8BF3B
:1001F0006D420CDD2C4480EA020281EA030382EAAC
:10020000000083EA010180EA020281EA0303362D3D
:1002100088BF30BD11F0004F4FEA01314FF4801C10
:100220004CEA113102D0404261EB410113F0004F22
:100230004FEA03334CEA133302D0524263EB4303D9
:1002400094EA050F00F0A780A4F10104D5F1200E77
:100250000DDB02FA0EFC22FA05F2801841F10001D2
:1002600003FA0EF2801843FA05F359410EE0A5F1A6
:1002700020050EF1200E012A03FA0EFC28BF4CF0D7
:10028000020C43FA05F3C01851EBE37101F000458D
:1002900007D54FF0000EDCF1000C7EEB00006EEB9A
:1002A0000101B1F5801F1BD3B1F5001F0CD3490824
:1002B0005FEA30004FEA3C0C04F101044FEA44527B
:1002C00012F5800F80F09A80BCF1004F08BF5FEA02
:1002D000500C50F1000041EB045141EA050130BDE2
:1002E0005FEA4C0C404141EB0101013C28BFB1F5F4
:1002F000801FE9D291F0000F04BF01460020B1FA3F
:1003000081F308BF2033A3F10B03B3F120020CDA11
:100310000C3208DD02F1140CC2F10C0201FA0CF0EF
:1003200021FA02F10CE002F11402D8BFC2F1200C54
:1003300001FA02F120FA0CFCDCBF41EA0C0190400A
:10034000E41AA2BF01EB0451294330BD6FEA040453
:100350001F3C1CDA0C340EDC04F11404C4F120023E
:1003600020FA04F001FA02F340EA030021FA04F350
:1003700045EA030130BDC4F10C04C4F1200220FAA7
:1003800002F001FA04F340EA0300294630BD21FAE5
:1003900004F0294630BD94F0000F83F4801306BFAB
:1003A00081F480110134013D4EE77FEA645C18BF9F
:1003B0007FEA655C29D094EA050F08BF90EA020F36
:1003C00005D054EA000C04BF1946104630BD91EA2E
:1003D000030F1EBF0021002030BD5FEA545C05D131
:1003E0004000494128BF41F0004130BD14F5800470
:1003F0003CBF01F5801130BD01F0004545F0FE41E4
:1004000041F470014FF0000030BD7FEA645C1ABF18
:10041000194610467FEA655C1CBF0B46024650EA4F
:10042000013406BF52EA033591EA030F41F400217B
:1004300030BD00BF90F0000F04BF0021704730B501
:100440004FF4806404F132044FF000054FF00001D6
:1004500050E700BF90F0000F04BF0021704730B597
:100460004FF4806404F1320410F0004548BF40426C
:100470004FF000013EE700BF42004FEAE2014FEAC1
:1004800031014FEA02701FBF12F07F4393F07F4F9C
:1004900081F06051704732F07F4208BF704793F09F
:1004A0007F4F04BF41F40021704730B54FF46074B2
:1004B00001F0004521F000411CE700BF50EA0102B5
:1004C00008BF704730B54FF000050AE050EA01025E
:1004D00008BF704730B511F0004502D5404261EBCE
:1004E00041014FF4806404F132045FEA915C3FF40F
:1004F000D8AE4FF003025FEADC0C18BF03325FEAAC
:10050000DC0C18BF033202EBDC02C2F1200300FA5C
:1005100003FC20FA02F001FA03FE40EA0E0021FA81
:1005200002F11444BDE600BF70B54FF0FF0C4CF46F
:10053000E06C1CEA11541DBF1CEA135594EA0C0F21
:1005400095EA0C0F00F0DEF82C4481EA030621EA5C
:100550004C5123EA4C5350EA013518BF52EA033597
:1005600041F4801143F4801338D0A0FB02CE4FF049
:100570000005E1FB02E506F00042E0FB03E54FF079
:100580000006E1FB03569CF0000F18BF4EF0010E71
:10059000A4F1FF04B6F5007F64F5407404D25FEA6D
:1005A0004E0E6D4146EB060642EAC62141EA555120
:1005B0004FEAC52040EA5E504FEACE2EB4F1FD0C62
:1005C00088BFBCF5E06F1ED8BEF1004F08BF5FEAE0
:1005D000500E50F1000041EB045170BD06F0004692
:1005E00046EA010140EA020081EA0301B4EB5C043F
:1005F000C2BFD4EB0C0541EA045170BD41F4801137
:100600004FF0000E013C00F3AB8014F1360FDEBF5B
:10061000002001F0004170BDC4F10004203C35DA37
:100620000C341BDC04F11404C4F1200500FA05F3BA
:1006300020FA04F001FA05F240EA020001F000425B
:1006400021F0004110EBD37021FA04F642EB0601D1
:100650005EEA430E08BF20EAD37070BDC4F10C04FB
:10066000C4F1200500FA04F320FA05F001FA04F2BF
:1006700040EA020001F0004110EBD37041F10001AB
:100680005EEA430E08BF20EAD37070BDC4F12005B6
:1006900000FA05F24EEA020E20FA04F301FA05F21E
:1006A00043EA020321FA04F001F0004121FA04F2C6
:1006B00020EA020000EBD3705EEA430E08BF20EA96
:1006C000D37070BD94F0000F0FD101F000464000D0
:1006D00041EB010111F4801F08BF013CF7D041EA52
:1006E000060195F0000F18BF704703F00046520056
:1006F00043EB030313F4801F08BF013DF7D043EA27
:100700000603704794EA0C0F0CEA135518BF95EADC
:100710000C0F0CD050EA410618BF52EA4306D1D163
:1007200081EA030101F000414FF0000070BD50EA82
:10073000410606BF1046194652EA430619D094EA0C
:100740000C0F02D150EA013613D195EA0C0F05D1F6
:1007500052EA03361CBF104619460AD181EA03014A
:1007600001F0004141F0FE4141F470014FF0000002
:1007700070BD41F0FE4141F4780170BD70B54FF09D
:10078000FF0C4CF4E06C1CEA11541DBF1CEA13551D
:1007900094EA0C0F95EA0C0F00F0A7F8A4EB0504FF
:1007A00081EA030E52EA03354FEA013100F08880F6
:1007B0004FEA03334FF0805545EA131343EA1263BF
:1007C0004FEA022245EA111545EA10654FEA002674
:1007D0000EF000419D4208BF964244F1FD0404F52D
:1007E000407402D25B084FEA3202B61A65EB030589
:1007F0005B084FEA32024FF480104FF4002CB6EB46
:10080000020E75EB030E22BFB61A754640EA0C00C5
:100810005B084FEA3202B6EB020E75EB030E22BF05
:10082000B61A754640EA5C005B084FEA3202B6EB46
:10083000020E75EB030E22BFB61A754640EA9C0005
:100840005B084FEA3202B6EB020E75EB030E22BFD5
:10085000B61A754640EADC0055EA060E18D04FEA93
:10086000051545EA16754FEA06164FEAC30343EA33
:1008700052734FEAC2025FEA1C1CC0D111F4801F00
:100880000BD141EA00014FF000004FF0004CB6E7F9
:1008900011F4801F04BF01430020B4F1FD0C88BF98
:1008A000BCF5E06F3FF6AFAEB5EB030C04BFB6EBA3
:1008B000020C5FEA500C50F1000041EB045170BD96
:1008C0000EF0004E4EEA113114EB5C04C2BFD4EBC3
:1008D0000C0541EA045170BD41F480114FF0000E47
:1008E000013C90E645EA060E8DE60CEA135594EAC3
:1008F0000C0F08BF95EA0C0F3FF43BAF94EA0C0FC6
:100900000AD150EA01347FF434AF95EA0C0F7FF43A
:1009100025AF104619462CE795EA0C0F06D152EA8E
:1009200003353FF4FDAE1046194622E750EA410672
:1009300018BF52EA43067FF4C5AE50EA41047FF483
:100940000DAF52EA43057FF4EBAE12E74FEA4102E6
:10095000B2F1E04324BFB3F5001CDCF1FE5C0DD91D
:1009600001F0004C4FEAC0024CEA5070B2F1004F67
:1009700040EB830008BF20F00100704711F0804F6A
:1009800021D113F13872BCBF01F00040704741F42F
:1009900080114FEA5252C2F11802C2F1200C10FA33
:1009A0000CF320FA02F018BF40F001004FEAC12317
:1009B0004FEAD32303FA0CFC40EA0C0023FA02F3BB
:1009C0004FEA4303CCE77FEA625307D150EA013391
:1009D0001EBF4FF0FE4040F44000704701F0004061
:1009E00040F0FE4040F40000704700BF53B94AB9E0
:1009F000002908BF00281CBF4FF0FF314FF0FF3027
:100A000000F00CB8ADF1080C6DE904CE03F032FA39
:100A1000DDF804E0DDE9022304B07047704700BF51
:100A200010B5054C237833B9044B13B10448AFF328
:100A300000800123237010BD0C0000200000000086
:100A40003041000808B5034B1BB103490348AFF31D
:100A5000008008BD000000001000002030410008A8
:100A600084B000220092154B196B41F020011963EC
:100A7000196B01F02001009100990192196B41F06E
:100A800080011963196B01F08001019101990292B3
:100A9000196B41F001011963196B01F00101029119
:100AA000029903921A6B42F004021A631B6B03F063
:100AB00004030393039B04B0704700BF0038024057
:100AC00010B582B000240094124B1A6B42F48002DD
:100AD0001A631A6B02F480020092009A01941A6B56
:100AE00042F400121A631B6B03F400130193019B81
:100AF00022462146112001F083FD112001F090FDD6
:100B000022462146382001F07BFD382001F088FD87
:100B100002B010BD0038024010B5002427E007EEF7
:100B2000904AB8EEE77ADFED167AC7EE277A17EE2D
:100B3000900AFFF7A1FC10A3D3E90023FFF7F4FC10
:100B4000FFF704FF00EE100A02F054FBF7EE007A04
:100B500030EE270ADFED0B7A20EE270ABCEEC00A42
:100B600010EE103A9BB2084A42F824300134C72CE8
:100B7000D5DD10BDAFF30080182D4454FB21194082
:100B80000000484300E0FF4428000020000000006F
:100B900038B50546002405E0194B4FF4006243F8D0
:100BA00024200134C72C24DC002DF5D02046FFF78B
:100BB00051FC11A3D3E90023FFF7B6FC0022114B2F
:100BC000FFF7DCFDFFF7C2FE00EE100A02F012FB99
:100BD000F7EE007A30EE270ADFED0B7A20EE270AD7
:100BE000BCEEC00A10EE103A9BB2054A42F824301F
:100BF000D7E738BDAFF30080182D4454FB211940CE
:100C0000280000200000694000E0FF4410B50024E7
:100C10000CE00120FFF7BCFF642001F06BFD002019
:100C2000FFF7B6FF642001F065FD0134022CF0DD12
:100C3000C82001F05FFD00240DE00120FFF7A8FFB0
:100C40004FF4967001F056FD0020FFF7A1FF6420DD
:100C500001F050FD0134022CEFDDC82001F04AFD07
:100C600000240CE00120FFF793FF642001F042FD17
:100C70000020FFF78DFF642001F03CFD0134022CC1
:100C8000F0DD10BD72B6FEE700B589B00023059314
:100C90000693079301930293039304931B481C4A02
:100CA0000260436083600361037680F820304FF078
:100CB0008052C2624FF000628262C3600123C3614E
:100CC00080F83030436100F0D1FCC0B917230593A0
:100CD0004FF4004306930023079305A90B4800F047
:100CE000C7FD70B90023019301220292039301A969
:100CF000064800F0E7FC30B909B05DF804FBFFF7E7
:100D0000C1FFFFF7BFFFFFF7BDFF00BF38060020A0
:100D10000020014000B585B00023009301930293A9
:100D200003931148114A02604360836003610376B4
:100D300080F82030C3600122C26180F83030426107
:100D400000F094FC60B90023009301220192029309
:100D50006946054800F0B6FC20B905B05DF804FB13
:100D6000FFF790FFFFF78EFFF00500200021014004
:100D700000B585B0002300930193029303931148BB
:100D8000114A0260436083600361037680F820307B
:100D9000C3600122C26180F83030426100F066FC1D
:100DA00060B900230093012201920293694605482D
:100DB00000F088FC20B905B05DF804FBFFF762FF86
:100DC000FFF760FFA80500200022014000B583B0B6
:100DD0000023009301930B480B4B036001F09EFC32
:100DE00060B904230093002301931022694605484B
:100DF00001F03AFD20B903B05DF804FBFFF742FFB4
:100E0000FFF740FF2C0500200074004000B583B0C0
:100E10000023009301930E480E4A026009224260AB
:100E200083602323C3608023836101F03FFE58B9B0
:100E300020230093002301936946054801F0EEFE4C
:100E400020B903B05DF804FBFFF71CFFFFF71AFFA2
:100E5000900300200010004008B50A480A4B0360C8
:100E60004FF4E133436000238360C36003610C22CD
:100E700042618361C36101F09FFF00B908BDFFF7C4
:100E800001FF00BF480300200010014008B51148D1
:100E9000114B0360114B436000238360C3604FF428
:100EA0008042026143618361C361036201F0BEFF5E
:100EB00050B90021074802F097F838B900210548D9
:100EC00002F0B3F820B908BDFFF7DCFEFFF7DAFE49
:100ED000FFF7D8FE78040020005C0040A0860100E7
:100EE00008B50D480D4B03604FF482734360002337
:100EF0008360C360036143614FF400728261C36128
:100F00000362436283620A23C36202F0AEF800B94F
:100F100008BDFFF7B7FE00BF2004002000500140CD
:100F200000B587B0002302930393049305930093C5
:100F300001931348134A0260436083601D22C2601C
:100F400003618023836101F0B1FD98B94FF48053B0
:100F5000029302A90A4801F0E2FD68B92023009338
:100F6000002301936946064801F058FE30B907B0E6
:100F70005DF804FBFFF786FEFFF784FEFFF782FEB5
:100F8000D80300200004004008B50448044B036067
:100F900002F0CAF800B908BDFFF774FE4005002052
:100FA0000030024010B594B008AC30220021204639
:100FB00002F0F3F800230393049305930693079339
:100FC0000193204A116C41F080511164126C02F0BF
:100FD00080520192019A02931B4B1A6842F44042DC
:100FE0001A601B6803F440430293029B0123089399
:100FF0004FF48033099302230E934FF480020F9233
:1010000004221092902211921293072313932046E8
:1010100000F05AFC90B90F2303930223049300239A
:1010200005934FF4A05306934FF480530793042184
:1010300003A800F0B3FE18B914B010BDFFF722FEEC
:10104000FFF720FE003802400070004000B583B07A
:1010500001F024FBFFF7A6FFFFF702FDFFF730FDCD
:10106000FFF712FEFFF756FEFFF782FEFFF7AEFE18
:10107000FFF7CCFEFFF7F0FEFFF708FFFFF730FFAA
:10108000FFF74EFFFFF780FFFFF746FD084801F02E
:1010900067FC00230093C823064A1021064801F08C
:1010A0004FFBFFF7B3FD4FF47A7001F023FBF8E735
:1010B00090030020280000202C050020FEE7FEE71A
:1010C000FEE7FEE7FEE770477047704708B501F09E
:1010D000FFFA08BD08B5024801F050F908BD00BF8D
:1010E000CC04002008B5024801F048F908BD00BF53
:1010F0004805002000B583B0002100910C4B5A6CCC
:1011000042F480425A645A6C02F480420092009A7F
:1011100001911A6C42F080521A641B6C03F08053E8
:101120000193019B072001F059FA03B05DF804FB1D
:101130000038024030B58DB000230793089309931F
:101140000A930B930368434A934207D0424A93425F
:1011500041D0424A93425DD00DB030BD04460025D7
:1011600001953F4B5A6C42F480725A645A6C02F4F7
:1011700080720192019A02951A6B42F001021A6381
:101180001B6B03F001030293029B012307930323CC
:10119000089307A9334800F0D7FE3348334B036068
:1011A00045608560C5604FF4806303614FF48053F0
:1011B00043614FF4804383614FF48073C3610562E0
:1011C000456201F041F818B9274BA3639C63C3E75C
:1011D000FFF758FDF8E700210391214B5A6C42F4C8
:1011E00000725A645A6C02F400720392039A0491DA
:1011F0001A6B42F001021A631B6B03F001030493A4
:10120000049B012307930323089307A9154800F0C3
:101210009BFEA1E700210591114B5A6C42F48062BC
:101220005A645A6C02F480620592059A06911A6B10
:1012300042F001021A631B6B03F001030693069B45
:10124000012307930323089307A9064800F07CFEB7
:1012500082E700BF00200140002101400022014040
:10126000003802400000024048050020106402409F
:101270000268094B9A4200D0704782B00023019364
:10128000064B1A6B42F480521A631B6B03F48053B3
:101290000193019B02B070470030024000380240C9
:1012A00030B589B000230393049305930693079305
:1012B0000268234B9A4201D009B030BD0446002594
:1012C000019503F5E2331A6C42F000521A641A6C6D
:1012D00002F000520192019A02951A6B42F001024B
:1012E0001A631B6B03F001030293029B20230393F9
:1012F0000323049303A9134800F026FE1248134B5E
:1013000003604FF06063436040238360C5604FF427
:10131000806303614FF4805343614FF480438361E2
:101320004FF48073C3610562456200F08DFF18B908
:10133000054BE3609C63BFE7FFF7A4FCF8E700BF41
:101340000074004000000240CC040020A060024075
:101350002DE9F04389B0002303930493059306938A
:1013600007930268224B9A4202D009B0BDE8F0838D
:10137000002500951F4C236B43F004032363236B6C
:1013800003F004030093009B0195236B43F00103DA
:101390002363236B03F001030193019B4FF400735C
:1013A00003934FF01209CDF810904FF00308CDF8D9
:1013B00018800427079703AE31460F4800F0C4FD9C
:1013C0004FF480730393CDF810900595CDF81880F5
:1013D00007973146094800F0B7FD0295236C43F4A6
:1013E00000032364236C03F400030293029BBCE715
:1013F000005C00400038024000080240000002404B
:1014000000B589B0002303930493059306930793D3
:101410000268154B9A4202D009B05DF804FB002126
:10142000019103F568435A6C42F480125A645A6C75
:1014300002F480120192019A02911A6B42F020028A
:101440001A631B6B03F020030293029B4FF460733B
:10145000039302230493032306930523079303A90D
:10146000024800F071FDD7E700500140001402402F
:1014700082B00368104A934204D0104A93420ED0BF
:1014800002B07047002300930D4B1A6C42F0020229
:101490001A641B6C03F002030093009BF0E7002327
:1014A0000193074B1A6C42F010021A641B6C03F094
:1014B00010030193019BE3E700040040001000408B
:1014C0000038024000B589B00023039304930593CC
:1014D00006930793026803F1804303F588339A4229
:1014E00002D009B05DF804FB0021019103F59433AB
:1014F0005A6C42F010025A645A6C02F010020192C7
:10150000019A02911A6B42F001021A631B6B03F0FD
:1015100001030293029B4FF4C063039302230493DD
:10152000032306930723079303A9024800F00CFD49
:10153000D7E700BF000002404A4B5A6822F440320D
:101540005A605A6841680A435A600268536823F433
:101550008073536002685368016943EA0123536052
:101560000268536823F040735360026853688168CF
:101570000B4353600268936823F40063936002682E
:101580009368C1680B439360826A374B9A4257D085
:101590000268936823F07063936002689368816ABD
:1015A0000B4393600268936823F040539360026892
:1015B0009368C16A0B4393600268936823F0020347
:1015C000936002689368017E43EA4103936090F858
:1015D0002030002B3FD00268536843F4006353600F
:1015E0000268536823F46043536001684B68426AA1
:1015F000013A43EA42334B600268D36A23F4700332
:10160000D3620168CB6AC269013A43EA0253CB62F2
:101610000268936823F4007393600268936890F8FB
:10162000301043EA412393600268936823F4806397
:10163000936002689368416943EA8123936070472D
:101640000268936823F0706393600268936823F0E4
:1016500040539360B0E70268536823F4006353601B
:10166000CAE700BF002301400100000F38B310B5E6
:101670000446036C43B1236C13F0100F0BD0012010
:10168000002384F83C3010BDFFF754FD0023636451
:1016900084F83C30EFE7236C23F4885323F00203F3
:1016A00043F0020323642046FFF746FF00206064F6
:1016B000236C23F0030343F001032364E0E70120DC
:1016C0007047000030B482B00022019290F83C20B4
:1016D000012A00F0C0800346012280F83C200A68FD
:1016E000092A40D90468E06892B202EB42021E3A2D
:1016F0004FF0070C0CFA02F220EA0202E2601C68CA
:10170000E0680A8802EB42021E3A8D6805FA02F28E
:101710000243E2604A68062A3CD81C68606B02EB10
:101720008202053A4FF01F0C0CFA02F220EA020284
:1017300062631C68606B4A6802EB8202053AB1F88A
:1017400000C00CFA02F2024362631868434A9042F6
:1017500050D01868414A904259D0002083F83C008C
:1017600002B030BC70470468206992B202EB4202BA
:101770004FF0070C0CFA02F220EA020222611C6808
:1017800020690A8802EB42028D6805FA02F20243E0
:101790002261BFE70C2A16D81D68286B02EB820273
:1017A000233A1F2404FA02F220EA02022A631D6887
:1017B000286B4A6802EB8202233A0C8804FA02F290
:1017C00002432A63C1E71D68E86A02EB8202413ADC
:1017D0001F2404FA02F220EA0202EA621D68E86AA3
:1017E0004A6802EB8202413A0C8804FA02F2024390
:1017F000EA62AAE70A68122AABD1194A506820F4B3
:1018000000005060506840F480005060A1E70A6812
:101810001448824201D0112A9FD1114A506820F405
:1018200080005060506840F40000506009680D4A24
:10183000914292D10C4A12680C49A1FB0212920CFF
:1018400002EB820252000192019A002A85D0019A8D
:10185000013A0192F8E7022082E700BF0020014030
:1018600000230140120000100800002083DE1B430B
:1018700090F83C30012B23D010B40246012380F8AD
:101880003C30104B586820F01F00586058680C68B6
:1018900020435860586820F44040586058684C68AD
:1018A00020435860586820F4706058605868896810
:1018B00001435960002082F83C005DF8044B7047FA
:1018C0000220704700230140002800F0E08170B53D
:1018D00082B00446036813F0010F3BD09F4B9B6816
:1018E00003F00C03042B2CD09C4B9B6803F00C03DF
:1018F000082B21D06368B3F5803F4FD0B3F5A02FFC
:1019000052D0964B1A6822F480321A601A6822F478
:1019100080221A606368002B50D000F0E5FE054677
:101920008E4B1B6813F4003F14D100F0DDFE401B0A
:101930006428F5D90320B1E1884B5B6813F4800F6C
:10194000D8D0864B1B6813F4003F03D06368002B8C
:1019500000F09F81236813F0020F54D07F4B9B68E7
:1019600013F00C0F3ED07D4B9B6803F00C03082B4B
:1019700033D0E368002B68D0794B01221A6000F065
:10198000B3FE0546754B1B6813F0020F54D100F0EF
:10199000ABFE401B0228F5D903207FE16F4A136894
:1019A00043F480331360B5E76C4B1A6842F480222D
:1019B0001A601A6842F480321A60ABE700F094FEB5
:1019C0000546664B1B6813F4003FC3D000F08CFE45
:1019D000401B6428F5D9032060E1604B5B6813F479
:1019E000800FC6D15D4B1B6813F0020F03D0E36874
:1019F000012B40F05081594A136823F0F803216904
:101A000043EAC1031360236813F0080F42D06369EF
:101A10006BB3534B0122C3F8802E00F065FE0546E0
:101A20004E4B5B6F13F0020F34D100F05DFE401B94
:101A30000228F5D9032031E1484A136823F0F8035E
:101A4000216943EAC1031360DDE7454B00221A60B8
:101A500000F04AFE0546414B1B6813F0020FD2D03E
:101A600000F042FE401B0228F5D9032016E13C4B52
:101A70000022C3F8802E00F037FE0546374B5B6F1F
:101A800013F0020F06D000F02FFE401B0228F5D9FC
:101A9000032003E1236813F0040F77D02F4B1B6C56
:101AA00013F0805F33D1002301932C4B1A6C42F06A
:101AB00080521A641B6C03F080530193019B012533
:101AC000284B1B6813F4807F23D0A368012B34D0EC
:101AD000052B38D0214B1A6F22F001021A671A6FBA
:101AE00022F004021A67A368002B3DD000F0FCFD31
:101AF00006461A4B1B6F13F0020F46D100F0F4FD9F
:101B0000801B41F288339842F3D90320C6E00025B8
:101B1000D6E7144A136843F48073136000F0E4FDC1
:101B20000646104B1B6813F4807FCED100F0DCFD1D
:101B3000801B0228F5D90320B0E0084A136F43F058
:101B400001031367CFE7054B1A6F42F004021A67CF
:101B50001A6F42F001021A67C5E700BF0038024061
:101B6000000047420070004000F0BEFD0646524BA8
:101B70001B6F13F0020F08D000F0B6FD801B41F27E
:101B800088339842F3D9032088E0EDB9A369002B8C
:101B900000F08380484A926802F00C02082A51D073
:101BA000022B17D0454B00221A6600F09DFD04461B
:101BB000414B1B6813F0007F42D000F095FD001BE5
:101BC0000228F5D9032069E03B4A136C23F08053C7
:101BD0001364DBE7394B00221A6600F085FD0546E9
:101BE000354B1B6813F0007F06D000F07DFD401BD5
:101BF0000228F5D9032051E0E369226A1343626A9F
:101C000043EA8213A26A5208013A43EA0243E26AB3
:101C100043EA0263284A5360284B01221A6600F007
:101C200063FD0446244B1B6813F0007F06D100F0CF
:101C30005BFD001B0228F5D903202FE000202DE0DA
:101C400000202BE0012B2BD01B4B5B6803F48001A1
:101C5000E269914226D103F03F02216A8A4223D1F0
:101C6000616A47F6C0721A40B2EB811F1ED103F4BD
:101C70004031A26A5208013AB1EB024F18D103F089
:101C80007063E26AB3EB026F14D1002006E001201A
:101C90007047012002E0012000E0002002B070BD8A
:101CA0000120FBE70120F9E70120F7E70120F5E734
:101CB0000120F3E70120F1E700380240000047422D
:101CC00008B5334B9B6803F00C03042B5BD0082B47
:101CD0005BD12F4B5A6802F03F025B6813F4800F10
:101CE0002CD02B4B5868C0F388104FEA401CBCEB3B
:101CF000000C6EEB0E0E4FEA8E1343EA9C634FEA24
:101D00008C11B1EB0C0163EB0E03DB0043EA517362
:101D1000C90011EB000C43F10003590200234FEA04
:101D20004C2041EADC51FEF761FE194B5B68C3F3BE
:101D3000014301335B00B0FBF3F008BD144B58685E
:101D4000C0F388104FEA401CBCEB000C6EEB0E0E8B
:101D50004FEA8E1343EA9C634FEA8C11B1EB0C01FE
:101D600063EB0E03DB0043EA5173C90011EB000C77
:101D700043F10003990200234FEA8C2041EA9C5171
:101D8000FEF734FED1E70348D7E70348D5E700BFA5
:101D90000038024000127A000024F400002800F00D
:101DA0009B8070B50D4604464F4B1B6803F00F0334
:101DB0008B4208D2CBB24C4A1370136803F00F0366
:101DC0008B4240F08B80236813F0020F17D013F082
:101DD000040F04D0454A936843F4E05393602368AA
:101DE00013F0080F04D0414A936843F460439360B2
:101DF0003E4A936823F0F003A1680B439360236885
:101E000013F0010F32D06368012B21D09A1E012AF2
:101E100025D9364A126812F0020F61D033498A6818
:101E200022F0030213438B6000F05EFC06462F4B4A
:101E30009B6803F00C036268B3EB820F16D000F0CE
:101E400053FC801B41F288339842F0D9032042E0D2
:101E5000264A126812F4003FE0D101203BE0234AF9
:101E6000126812F0007FD9D1012034E01E4B1B68AC
:101E700003F00F03AB4207D9EAB21B4B1A701B6881
:101E800003F00F03AB422DD1236813F0040F06D0EB
:101E9000164A936823F4E053E1680B439360236888
:101EA00013F0080F07D0114A936823F460432169A7
:101EB00043EAC1039360FFF703FF0C4B9B68C3F336
:101EC00003130B4AD35CD8400A4B18600A4B1868BE
:101ED00000F0BEFB002070BD012070470120FAE732
:101EE0000120F8E70120F6E7003C024000380240FC
:101EF000584100080800002004000020014B186829
:101F0000704700BF0800002008B5FFF7F7FF044B3B
:101F10009B68C3F38223034AD35CD84008BD00BF4B
:101F2000003802405041000808B5FFF7E7FF044BB6
:101F30009B68C3F34233034AD35CD84008BD00BF5B
:101F4000003802405041000800230F2B00F2F680B9
:101F500070B582B066E085684FEA430E032404FA48
:101F60000EF425EA0405CC6804FA0EF42C438460D0
:101F7000446824EA02044A68C2F300129A402243E9
:101F800042605DE0DC08083450F8242003F00705C7
:101F9000AD004FF00F0E0EFA05FE22EA0E0E0A6992
:101FA000AA4042EA0E0240F824205DE0092200E047
:101FB000002202FA0EF22A430234614D45F8242031
:101FC000604A94686FEA0C0224EA0C054E6816F425
:101FD000801F01D04CEA04055A4CA560E46802EA6F
:101FE00004054E6816F4001F01D04CEA0405554C58
:101FF000E560646802EA04054E6816F4003F01D00B
:102000004CEA04054F4C6560246822404D6815F485
:10201000803F01D04CEA04024A4C226001330F2B6E
:1020200000F28A8001229A400C6804EA020C32EA2B
:102030000404F3D14C6804F00304013C012C8AD958
:102040004A6802F00302032A09D0C4685D00032233
:10205000AA4024EA02048A68AA402243C2604A686D
:1020600002F00302022A8DD004684FEA430E0322D5
:1020700002FA0EF224EA02044A6802F0030202FAAB
:102080000EF2224302604A6812F4403FC6D000229A
:1020900001922D4A546C44F480445464526C02F40E
:1020A00080420192019A9C08A51C254A52F82550AD
:1020B00003F0030E4FEA8E0E0F2202FA0EF225EA0B
:1020C0000205224A90423FF473AF02F580629042CB
:1020D00022D002F58062904220D002F580629042C8
:1020E0001ED002F5806290421CD002F580629042C0
:1020F0001AD002F58062904218D002F580629042B8
:1021000016D002F58062904214D002F580629042AF
:102110003FF44CAF0A224CE701224AE7022248E78B
:10212000032246E7042244E7052242E7062240E76D
:1021300007223EE708223CE702B070BD704700BFAF
:1021400000380140003C01400038024000000240DD
:1021500030B405682C6824F480242C600468636023
:102160008368402B05D0036899600368DA6030BC4F
:10217000704703689A600368D960F8E710B4036891
:10218000D9B210390A4AA2FB01421209094CA25CD9
:10219000C2655F2907D96FF3090304338365806D36
:1021A0005DF8044B70476FF309038365F7E700BFE1
:1021B000ABAAAAAA48410008836A826992B9012B96
:1021C0000AD0022B02D00BB100207047C36A13F073
:1021D000807F28D100207047C36AB3F1C07F24D02C
:1021E00000207047B2F5005F09D0022B25D9032BE0
:1021F00025D1C36A13F0807F23D100207047032BC1
:1022000003D8DFE803F01404140A00207047C36AFF
:1022100013F0807F0DD100207047C36AB3F1C07FF7
:1022200009D000207047012070470120704701202D
:10223000704701207047012070470120704700203F
:10224000704701207047000070B5044600F04CFA5A
:10225000002C5BD00546022384F83530002384F837
:1022600034302268136823F00103136023681A686E
:1022700012F0010F0AD000F037FA431B052BF5D9F5
:1022800020236365032084F8350070BD1A68204957
:1022900011406268A0680243E0680243206902437B
:1022A00060690243A0690243E0690243206A024375
:1022B0000A43616A04291ED01A602668756925F0F0
:1022C0000705636A1D43042B07D1A36A1D43E36A14
:1022D0001BB12046FFF770FF90B975612046FFF7EC
:1022E0004DFFE26D3F239340836000206065012332
:1022F00084F83530C9E7E16A206B01430A43DBE724
:1023000040236365012084F83500BEE70120BCE767
:102310003F8010F038B50446856D90F834000128F0
:102320002AD0012084F8340094F83500012804D024
:10233000002384F83430022038BD022084F83500B0
:10234000002060652046FFF703FFE26D3F239340C6
:10235000AB602268136843F016031360236C23B14B
:102360002268136843F0080313602268136843F07F
:10237000010313600020DFE70220DDE7F0B583B042
:10238000044600230193724B1D68724BA3FB053575
:10239000AD0A876D3E68C26D08239340334210D06A
:1023A00003681A6812F0040F0BD01A6822F00402B6
:1023B0001A60C26D08239340BB60436D43F0010374
:1023C0004365E26D01239340334209D0226852698C
:1023D00012F0800F04D0BB60636D43F002036365AD
:1023E000E26D04239340334209D02268126812F050
:1023F000020F04D0BB60636D43F004036365E26DBC
:1024000010239340334224D02268126812F0080F40
:102410001FD0BB6023681A6812F4802F0DD01B6890
:1024200013F4002F04D1236C9BB12046984710E091
:10243000A36C73B1204698470BE01A6812F4807FB2
:1024400003D11A6822F008021A60236C0BB12046EF
:102450009847E26D20239340334254D0226812689B
:1024600012F0100F4FD0BB6094F83530052B0ED012
:1024700023681A6812F4802F33D01B6813F4002FDE
:102480002AD1636C002B3ED0204698473BE022685F
:10249000136823F0160313602268536923F0800346
:1024A0005361236CA3B12268136823F008031360FF
:1024B000E26D3F239340BB60012384F83530002355
:1024C00084F83430236D002B3FD0204698473CE001
:1024D000A36C002BE7D1EBE7E36BA3B12046984751
:1024E00011E01A6812F4807F09D11A6822F01002F4
:1024F0001A60012384F83530002384F83430E36B0C
:102500000BB120469847636DFBB1636D13F0010F6B
:1025100017D0052384F835302268136823F00103AF
:102520001360019B01330193AB4204D823681B68FD
:1025300013F0010FF5D1012384F83530002384F81E
:102540003430E36C0BB12046984703B0F0BD00BFB8
:1025500008000020B5814E1B002807DB00F01F0299
:10256000400901239340024A42F82030704700BFDF
:1025700000E100E0002808DB0901C9B200F1604079
:1025800000F5614080F80013704700F00F0009016A
:10259000C9B2014B1954704714ED00E000B500F0CA
:1025A0000700C0F1070CBCF1040F28BF4FF0040C6A
:1025B000031D062B0FD9C31E4FF0FF3E0EFA0CF081
:1025C00021EA000199400EFA03FE22EA0E0241EAD6
:1025D00002005DF804FB0023EEE70000074AD36821
:1025E00023F4E0631B041B0C000200F4E0600343CF
:1025F00043F0BF6343F40033D360704700ED00E065
:1026000010B50446054BD868C0F30220FFF7C6FF9B
:1026100001462046FFF7AEFF10BD00BF00ED00E011
:1026200008B5FFF799FF08BD0138B0F1807F0BD2E4
:102630004FF0E0235861054AF02182F82310002072
:10264000986107221A6170470120704700ED00E091
:1026500010B504460E4B1A784FF47A73B3FBF2F3BD
:102660000C4A1068B0FBF3F0FFF7DEFF68B90F2CDF
:1026700001D901200AE0002221464FF0FF30FFF788
:10268000BFFF054B1C60002000E0012010BD00BF13
:1026900000000020080000200400002008B50B4BBB
:1026A0001A6842F400721A601A6842F480621A6072
:1026B0001A6842F480721A600320FFF78FFF00202F
:1026C000FFF7C6FFFEF716FD002008BD003C0240E4
:1026D000034A1168034B1B780B441360704700BF1B
:1026E0008006002000000020014B1868704700BFE2
:1026F0008006002038B50446FFF7F6FF0546B4F122
:10270000FF3F02D0044B1B781C44FFF7EDFF401B3A
:10271000A042FAD338BD00BF0000002070B110B550
:102720000446037933B10223237100202061012381
:10273000237110BD4371FEF7B3FDF4E7012070472C
:1027400070B50D461146049A002861D004464079C0
:1027500001285FD00120607102202071002D2FD14F
:10276000A0682D4EC663A0682C4E0664A0682C4E4F
:10277000C6642668306840F48050306022B1042A74
:102780001BD02268103201E022680832002D31D1BE
:102790002668306840F400503060A068FFF7BAFD4A
:1027A0000023637100282ED121680B6805F0100505
:1027B0000122AA4013430B6070BD22680C32E5E78A
:1027C000E068184EC663E068174E0664E068174E6E
:1027D000C6642668306840F08050306022B1042A18
:1027E00005D022681C32D1E722681432CEE7226875
:1027F0001832CBE72668306840F000503060E0685F
:10280000FFF788FDCCE7236943F004032361D3E796
:102810000120D1E70220CFE733280008452800082F
:1028200051280008D1280008E1280008EB280008FA
:10283000704710B5846B2046FFF7FAFF0123237120
:1028400010BD704708B5806BFFF7FBFF08BD7047F0
:1028500010B5846B236943F0040323612046FFF71E
:10286000F6FF0123237110BD48B3844649B3437971
:10287000012B28D010B54FF0010E80F805E002239F
:1028800003710468206802F0100240F6FE73934062
:1028900020EA03000B6849680B439340034323601D
:1028A000DCF800000368C02101FA02F223EA020307
:1028B00003608CF804E000208CF8050010BD0120B6
:1028C000704701207047022070477047704770477B
:1028D00010B5846B2046FFF7F8FF0123237110BD6C
:1028E00008B5806BFFF7F2FF08BD10B5846B236954
:1028F00043F0040323612046FFF7E9FF012323711E
:1029000010BD10B4036A046A24F0010404628469EF
:1029100024F0F00C4CEA021223F00A030B4382610C
:1029200003625DF8044B704710B4036A046A24F034
:1029300010040462846924F4704C4CEA023223F0DF
:10294000A00343EA0113826103625DF8044B704700
:10295000836823F070030B4343F0070383607047E1
:1029600090F83D30012B32D1022380F83D300368CE
:10297000194A934220D0B3F1804F1DD0A2F57C427A
:10298000934219D002F58062934215D002F580621D
:10299000934211D002F5784293420DD002F5705265
:1029A000934209D0A2F59432934205D01A6842F0BE
:1029B00001021A60002070479A6802F00702062A96
:1029C00007D01A6842F001021A6000207047012007
:1029D00070470020704700BF000001400368324A82
:1029E000904212D0B0F1804F0FD0A2F57C429042BD
:1029F0000BD002F58062904207D002F580629042CF
:102A000003D002F57842904203D123F070034A6864
:102A10001343254A90422AD0B0F1804F27D0A2F527
:102A20007C42904223D002F5806290421FD002F592
:102A3000806290421BD002F57842904217D002F596
:102A40007052904213D002F5806290420FD002F58E
:102A5000806290420BD0A2F59832904207D002F5E6
:102A60008062904203D002F58062904203D123F449
:102A70004073CA68134323F080034A6913438A688A
:102A8000C2620A688262084A904203D002F58062FC
:102A9000904201D10A690263026842F004020260B6
:102AA00001224261036070470000014040B310B54D
:102AB000044690F83D30F3B1022384F83D302146BE
:102AC00051F8040BFFF78AFF012384F8463084F89D
:102AD0003E3084F83F3084F8403084F8413084F848
:102AE000423084F8433084F8443084F8453084F828
:102AF0003D30002010BD80F83C30FEF7B9FCDBE72C
:102B00000120704710B4846824F47F4C42EA032209
:102B10000A4342EA0C0282605DF8044B704790F869
:102B20003C30012B78D010B50446012380F83C30AE
:102B3000022380F83D300268936823F47F4323F03A
:102B4000770393600B68602B4CD023D8402B54D074
:102B500011D8202B03D00AD80BB1102B05D1194660
:102B60002068FFF7F5FE002028E0012026E0302B4A
:102B7000F5D0012022E0502B0AD1CA6849680068CC
:102B8000FFF7BFFE50212068FFF7E2FE002015E0AE
:102B9000012013E0B3F5805F3AD0B3F5005F14D0A5
:102BA000702B37D1CB684A6889680068FFF7AAFFA5
:102BB0002268936843F0770393600020012384F830
:102BC0003D30002384F83C3010BDCB684A688968EA
:102BD0000068FFF797FF2268936843F4804393608F
:102BE0000020EBE7CA6849680068FFF79DFE602196
:102BF0002068FFF7ADFE0020E0E7CA68496800687A
:102C0000FFF77FFE40212068FFF7A2FE0020D5E7F6
:102C10000020D3E70120D1E70220704790F83C2044
:102C2000012A3DD010B40346012280F83C20022244
:102C300080F83D2002685068946820F0700C0868A5
:102C400040EA0C0050601A68164882421AD0B2F16D
:102C5000804F17D0A0F57C40824213D000F58060F1
:102C600082420FD000F5806082420BD000F57840A0
:102C7000824207D000F57050824203D0A0F5943014
:102C8000824204D124F080044968214391600122EA
:102C900083F83D20002083F83C005DF8044B70472A
:102CA000022070470000014010B504460268136915
:102CB00023F44053C1680B431361836802691A43CC
:102CC00043691A43C3691A430168CB6823F4164366
:102CD00023F00C031343CB600268536923F4407361
:102CE00081690B4353610368314A934206D002F570
:102CF0008062934202D0FFF707F901E0FFF714F971
:102D0000E369B3F5004F29D00021031849411B188E
:102D100041F10001C90041EA5371DB0018186368F2
:102D20004FEA83024FEA937341F10001FDF75EFE23
:102D3000204AA2FB00314909642303FB11031B0154
:102D40003233A2FB03235B0903F0F00202EB011212
:102D500003F00F03216813448B6010BD0023021899
:102D600043EB0301121841F10001C90041EA52711D
:102D7000D200101841F10001626892185B41FDF722
:102D800035FE0C4AA2FB00314909642303FB110301
:102D9000DB003233A2FB03235B095A0002F4F87212
:102DA00002EB011203F00703216813448B60D4E7A0
:102DB000001001401F85EB5160B310B5044690F838
:102DC000413013B3242384F841302268D36823F4BC
:102DD0000053D3602046FFF767FF2268136923F48E
:102DE000904313612268536923F02A0353612268D8
:102DF000D36843F40053D36000206064202384F838
:102E0000413084F84230606310BD80F84030FEF7F6
:102E100059FBD7E701207047034AD2F8883043F4C2
:102E20007003C2F88830704700ED00E0002800F021
:102E3000CC8070B5044690F83D30002B77D0242329
:102E400084F83D302268136823F001031360226880
:102E5000136843F4004313602268136823F40043AB
:102E60001360FFF751F862685A4B9A4264D85A4B84
:102E700098428CBF00230123002B40F0A8805749C3
:102E8000A1FB00318B0C25686A6822F03F0242EA00
:102E900091426A6021680A6A22F03F0266684D4DDD
:102EA000AE424FD8013313430B622168CA6922F442
:102EB0004F4222F0FF026568464B9D424CD8431EAC
:102EC0006D00B3FBF5F3013340F6FC70034278D09C
:102ED000C3F30B031A43CA6121680B6823F0C003D4
:102EE000E269206A024313430B6021688B6823F474
:102EF000034323F0FF032269E068024313438B601E
:102F00002168CB6823F0FF036269A0690243134381
:102F1000CB602268136843F0010313600020206433
:102F2000202384F83D30206384F83E0070BD80F893
:102F30003C30FEF70DFA82E7294B98428CBF002304
:102F4000012399E74FF4967505FB03F3254DA5FB87
:102F500003539B090133A6E7A668BEB9431E05EBE0
:102F6000450CB3FBFCF30133C3F30B03B3FA83F358
:102F70005B0943BBC6B9431E05EB4505B3FBF5F33F
:102F80000133C3F30B0343F40043A3E7431E05EBF4
:102F9000850C0CEB8C0CB3FBFCF30133C3F30B037C
:102FA000B3FA83F35B09E4E7431E05EB850505EB04
:102FB0008505B3FBF5F30133C3F30B0343F440433F
:102FC00088E7042386E7012384E701207047012076
:102FD000ACE700BFA08601007F841E0083DE1B4398
:102FE000FF083D00D34D621090F83D30202B01D0FA
:102FF00002207047242380F83D300268136823F0D4
:10300000010313600268536A23F0100353620268DD
:10301000536A0B4353620268136843F00103136061
:10302000202380F83D300020704790F83D30202B61
:1030300001D002207047242380F83D3002681368D5
:1030400023F0010313600268536A9BB223F00F035D
:10305000194389B251620268136843F00103136097
:10306000202380F83D300020704700285AD010B54A
:103070000446436A33B94368B3F5827F05D0002321
:10308000C36102E00023036143610023A36294F85B
:103090005130002B40D0022384F85130226813684D
:1030A00023F040031360636803F48273A26802F4A0
:1030B00004421343E26802F400621343226902F0FF
:1030C00002021343626902F001021343A26902F48F
:1030D00000721343E26902F038021343226A02F0DD
:1030E00080021343A26A02F40052216813430B606A
:1030F000638B03F00403626A02F010022168134339
:103100004B602268D36923F40063D36100206065BB
:10311000012384F8513010BD84F850302046FEF76A
:103120006FF9B8E70120704758B110B504464379EC
:103130001BB101236371002010BD0371FEF798F8E5
:10314000F7E7012070470000DFF834D0FFF764FE96
:103150000C480D490D4A002302E0D458C4500433F2
:10316000C4188C42F9D30A4A0A4C002301E01360C8
:103170000432A242FBD300F019F8FDF767FF704755
:1031800000000320000000200C000020484500083B
:103190000C00002084060020FEE702440346934210
:1031A00000D1704703F8011BF9E7000070B50D4B23
:1031B0000D4D5B1B9C100026A64209D100F0B8FF04
:1031C0000A4D0B4B5B1B9C100026A64205D170BD1F
:1031D00055F8043B98470136EEE755F8043B98470D
:1031E0000136F2E740450008404500084045000828
:1031F0004445000810EE103A194923F000428A4273
:103200001BD9B2F1FF4F02D330EE400A704700B530
:1032100083B0684600F0F2F800F0030001289DED4D
:10322000000ADDED010A13D002280BD098B9012065
:1032300000F09CF803B05DF804FBDFED0A0A002003
:1032400000F094B8012000F091F8B1EE400AF1E7E7
:1032500000F00AF8EEE700F007F8B1EE400AE9E7FF
:10326000D80F493F0000000010EE103A23F0004351
:10327000B3F1485F2CD2FDEEC07A17EE903A002BE6
:1032800060D060EE007A9FED317A9FED315ADFED2C
:10329000315A9FED316ADFED316AA7EE875A9FED13
:1032A000307AE7EE855AA7EEA56AA7EE867AE7EEB2
:1032B000876A67EEA66A60EEC00AB6EE007AE7EEAD
:1032C000A60AB7EE000AD7EE870A30EE600A70470A
:1032D00060EE007A9FED1D7A9FED1D5ADFED1D5ABD
:1032E0009FED1D6ADFED1D6A1E4AA7EE875A9342C5
:1032F0009FED1B7AE5EE275AA5EEA76AA6EE277A80
:10330000E7EE276A66EEA76AD5D9174A934214D822
:1033100003F17F4307EE103AB7EE006A36EE476AD4
:1033200060EEC00AF6EE005A97EEA57AE7EEA60A1E
:1033300037EE607A36EE470A7047B6EE076AB5EEAA
:10334000027AEDE7B7EE000A704700BF4ED747ADEF
:10335000F6740F317CF293B4010DD037ABAA2A3D3D
:10336000610BB6BA9999993E0000483F10EE103AA9
:1033700023F00043B3F1485F04D2FDEEC07A17EEAC
:10338000903A5BB360EE007A9FED157ADFED155A47
:103390009FED156ADFED156AE7EE875A9FED147A07
:1033A000A5EEA76A20EE275AE6EE276AA6EEA77AD0
:1033B00030B9DFED106AE7EE876AA6EE850A70473E
:1033C00027EE457AF6EE006AA0EEA67ADFED0A6AED
:1033D000D7EE270AE5EE260A30EE600A704700BFF6
:1033E000D3C92E2F342FD7B21BEF3836010D50B969
:1033F0008988083CABAA2ABEABAA2A3E70B510EE5B
:10340000103A8B4A23F00044944286B0054671D9A5
:10341000884A94421E4624D823F00042002BDFED58
:10342000867A864922F00F02B0EE407A40F3E680B9
:103430008A4270EE677A09BF9FED817ADFED816A7B
:10344000DFED816A77EEC77A37EEE67A77EEC77AF4
:1034500080ED007A77EEE67AC0ED017A012006B0C1
:1034600070BD7A4A944253D9B4F1FF4F49D2E21564
:10347000863AA4EBC25307EE903ABDEEE77ADFED51
:10348000746AB8EEC77A77EEC77A8DED037A67EE85
:10349000A67ABDEEE77AB8EEC77A77EEC77A8DEDF9
:1034A000047A67EEA67AF5EE407AF1EE10FACDEDE9
:1034B000057A40F08E80B5EE407AF1EE10FA40F0D9
:1034C0008A800123634901910221009103A82946C2
:1034D00000F0D2F8002EC2DA95ED007AD5ED017A2F
:1034E000B1EE477AF1EE677A85ED007AC5ED017AA3
:1034F0004042B4E7002285ED000A4260002006B099
:1035000070BD70EE407AC0ED017AC0ED007AF5E74B
:1035100000F0AAF89FED507A9FED476AF6EE007A28
:10352000E0EE077A9FED477AFDEEE77AF8EEE76A7C
:1035300017EE900AA6EEC60A1F2866EE877AB1EE4D
:10354000666A30EE677A1EDC444A411E26F000436C
:1035500052F8212023F0FF03934214D085ED007A26
:1035600030EE470A002E30EE670A85ED010ABFF6FD
:1035700076AFB1EE477AB1EE400A85ED007A85ED7F
:10358000010A40426BE717EE103AC3F3C753C3EB8F
:10359000D453082B4FEAE452E0DD9FED297A9FEDEA
:1035A0002A5AF0EE405AE6EE075A70EE657AE6EED9
:1035B000077AD6EE857A35EEE77A17EE103AC3F33E
:1035C000C753D21A192A08DCB0EE650A85ED007AD5
:1035D000C6E7032376E7022374E79FED217A9FED88
:1035E000215AB0EE650AA6EE070A75EEC07AE6EE3D
:1035F000077AD6EE857A30EE677AAFE78A4270EEC8
:10360000277A09BF9FED0E7ADFED0E6ADFED0E6AB5
:1036100077EE877A37EEA67A77EEC77A80ED007A72
:1036200077EEA67AC0ED017A4FF0FF3017E700BFC2
:10363000D80F493FE3CB1640800FC93FD00FC93F99
:10364000004435374344353708A3852E800F49435E
:1036500000008043E841000884F9223F68410008E7
:1036600000A3852E32318D2410EE103A23F0004352
:1036700000EE103A704700BF2DE9F04F2DED048B9E
:10368000DBB01C46944603930A46BA4B68991CF17A
:10369000040F53F82170824604F1FF39C0F25682BC
:1036A000BCF1030348BF0CF10403DB1002930133A8
:1036B0004FEAC30EACEB0E030593029B17EB090018
:1036C000A3EB090316D401309FEDAB7A699C184433
:1036D0001EA9002BA4BF54F8235007EE905A03F103
:1036E0000103ACBFF8EEE77AF0EE477A8342E1ECF3
:1036F000017AEED1002FC0F2E28203991EA800EBFE
:1037000081004FEA81087E18002346AD4C460AEB43
:103710008101B9F1000F80F2C8800134B44245F84C
:10372000043B00F10400F4D10DF1280B0BEB8703EF
:10373000CDE9062E043B9FED929ADFED908A059825
:1037400004930AEB080446AE0BEB87080097CDF80C
:1037500020C00DEB8703002F93ED460A4FEA870543
:1037600015DD73195A4660EE097AB0EE407AFDEE27
:10377000E77A73ED016AF8EEE77AB342A7EEE87AEA
:1037800037EEA60ABDEEC77AA2EC017AEBD1019022
:1037900000F0B8FAF4EE007AB0EE408A20EE270A84
:1037A00000F01EFBF2EE007AA0EE678A0198002876
:1037B000FDEEC89AF8EEE97A38EE678A40F3828027
:1037C000791EC0F108035BF821E04EFA03FC0CFA05
:1037D00003F3AEEB030EC0F1070219EE903A4EFA76
:1037E00002F26344002A09EE903A4BF821E000F31C
:1037F000AF80B5EE408AF1EE10FA74D1009B9F4283
:103800000ADD5D44002355F8041D454543EA0103E4
:10381000F9D1002B40F00281009B013B5BF8232093
:103820007B1C9C46002A40F0F780049A012152F844
:10383000045D0131002DFAD03944029D039A05EB55
:10384000030E0EF1804E699D0EF1FF3E3A4405EBEA
:103850008E0E1EAD06EB830705EB8205DEED017AC9
:10386000F8EEE77AB9F1000F0EF1040EE5EC017AFB
:10387000DFED417A09DB2A465346F3EC016A32ED6B
:10388000017AA342E6EE877AF7D10CF1010C8C4560
:10389000E7EC017AE2DD0F465BE70134B442E5EC88
:1038A000017A00F104003FF43FAFDFED337A834645
:1038B0005346F3EC016A3BED017A8B42E6EE877AE0
:1038C000F7D1EAE700F09180F6EE007AB4EEE78AED
:1038D000F1EE10FA80F22981B5EE408AF1EE10FA8D
:1038E0004FF000028AD09246DDE9062EDDF820C0B6
:1038F0000197AEEB0C00B0EE480A009F009200F07A
:1039000001FADFED1E6AB4EEE60AF1EE10FADDE927
:103910000023F0EE407AC0F29C819FED197A059960
:1039200020EE077A0831BDEEC77A0591B8EEC77A66
:103930005C1CE7EE667ABDEEC77AFDEEE77A17EE1D
:10394000901A4BF8231017EE103A4BF824307EE013
:103950000133002F09EE903A40F39D8159464FF014
:10396000000E51F8043B002B39D0C3F5807341F8A9
:10397000043C0CE02C4500080000000000008043DF
:103980000000803B0B68C3F1FF0341F8043B0EF1DC
:10399000010E7745F6DC01239E4600280BDD012849
:1039A00000F0BB80022806D1791E5BF8213003F0BD
:1039B0003F0C4BF821C0022A7FF41BAFB7EE000A80
:1039C000734630EE488A002B3FF413AF0992019002
:1039D00000F098F90198099A38EE408A09E70EF14B
:1039E000010E7745BDDC9E46D7E77B1E5BF82320A2
:1039F000D211002A7FF7FDAE19EE903A002F03F1A5
:103A0000010309EE903AA9DC022A7FF4F2AEF7EE48
:103A1000007A37EEC88AECE619460EE73B46924636
:103A2000DDE905125C1EA1F108005BF82410009F7F
:103A3000059061B903F18043013B0BEB8303014621
:103A400053F8040D013C08390028F9D00591059878
:103A50000092B7EE000A00F055F9002C009AB0EE83
:103A6000407AC0F22281601C46AD5FED3B6A810066
:103A70000BEB800305EB800073ED017AF8EEE77A3B
:103A80005B4567EE877A27EE267A60ED017AF3D1FF
:103A90000DF1C8080E1F2E44C646A4460025002F6F
:103AA0007DDBDFF85C92DFED957A3046002307E09E
:103AB000F9EC016AB0EC017A9F42E6EE877A03DB0B
:103AC000AB4203F10103F3DD0CF1FF3CBCF1FF3F1E
:103AD000EEEC017A05F10105A6F10406E1D1689B3F
:103AE000022B6ADC002B36DC0ED1DFED847A4144F8
:103AF00031ED017A414577EE877AF9D15346002BB3
:103B000040F0C680C2ED007A19EE903A03F007004B
:103B10005BB0BDEC048BBDE8F08F791E5BF8213003
:103B200003F07F0C4BF821C045E719EE903A002FC7
:103B300003F1010309EE903AC8BF02223FF70EAF2E
:103B4000F7EE007A37EEC88A022252E600234FF0E1
:103B5000080E0293AEE5DDED327A9FED687A4144BE
:103B600071ED016A414537EE267AF9D15346002BB3
:103B700040F0848077EEC77A82ED007A64B133A991
:103B80000123B1EC017A01339C4277EE877AF8DAAF
:103B900053460BB1F1EE677AC2ED017AB4E70CF14E
:103BA000FF3C0023BCF1FF3F4EF8043B05F101054B
:103BB000A6F104067FF473AF91E7689B032BA3D1B2
:103BC000002C00F08C8008EB840595ED007AA000B5
:103BD0002B46294671ED017AF0EE476A37EE277AD7
:103BE000414577EEC77A81ED007A77EEA67AC1ED8E
:103BF000017AEFD1012C72D095ED007A08F1040121
:103C000073ED017AF0EE476A37EE277A994277EE44
:103C1000C77A83ED007A77EEA67AC3ED017AEFD109
:103C2000031DDFED367A434408F1080833ED017ACD
:103C3000984577EE877AF9D15346DDED326A9DEDEE
:103C4000337A73B9C2ED006A82ED017AC2ED027A6D
:103C50005AE7FDEEC07A1C4617EE901A4BF8231077
:103C6000F5E6F1EE666AB1EE477AF1EE677AC2EDFB
:103C7000006A82ED017AC2ED027A45E7F1EE476A09
:103C800077EEC77AC2ED006A002C7FF478AF81E747
:103C9000F1EE677A36E7012815D002287FF4B4AE3A
:103CA0000EF03F034BF82130AEE6689B022B12DC8E
:103CB000002B17DC7FF428AFDFED107A1EE7039BA3
:103CC0004FEA830830E50EF07F03022A4BF82130DB
:103CD0007FF48FAD9BE6689B032B7FF415AFDFED80
:103CE000077AA9E75346DDED327A1BB14FF0004366
:103CF00013604FE7002313604EE700BF0000000091
:103D00000045000810EE103A33F000411A4625D065
:103D1000B1F1FF4F1FD213F0FF4F20D1DFED297A11
:103D2000294A60EE277A904217EE903A31DB4CF246
:103D3000503CC3F3C75160451A46A1F1190114DD87
:103D4000002BDFED227A9FED210AB8BFDFED207A4C
:103D500027EE800A704730EE000A704770474CF239
:103D6000503C60454FEAD151EADC0144FE29E7DCD2
:103D7000002915DC11F1160F19DB193122F0FF4271
:103D800042EAC15207EE902A9FED120A27EE800AFE
:103D90007047DFED117A07EE103A27EE270A7047D9
:103DA00022F0FF4242EAC15300EE103A7047002B66
:103DB000DFED097A9FED080AB8BFDFED087A27EE3C
:103DC000800A70470000004CB03CFFFFCAF2497106
:103DD000CAF249F1000000336042A20D6042A28D98
:103DE00010EE102AC2F3C7537F3B162B22F000417E
:103DF0001BDC002B10461EDB1A4919410A4223D056
:103E0000DFED197A70EE277AF5EEC07AF1EE10FA4E
:103E10001ADD002A04DA4FF4000242FA03F31844D0
:103E200020EA010300EE103A7047B1F1FF4F0BD3C7
:103E300030EE000A7047DFED0C7A70EE277AF5EE6F
:103E4000C07AF1EE10FA00DC7047002A02DB9FED29
:103E5000070A704711B99FED060A7047BFEE000AC6
:103E6000F2E700BFFFFF7F00CAF2497100000000C7
:103E7000000000802DE9F0478C468E46089E1546CE
:103E800004461946002B40F0D080724547D9B2FA5B
:103E900082F74FB1C7F120030EFA07FC20FA03F3B3
:103EA000BD4043EA0C0CBC404FEA154EA8B2BCFB27
:103EB000FEF8230C0EFB18CC08FB00F943EA0C4378
:103EC000994528D9EB1808F1FF3204D2994502D957
:103ED000A8F102022B44A3EB0903A4B2B3FBFEFC3E
:103EE0000EFB1C330CFB00F044EA0344A04214D93F
:103EF0002C190CF1FF3304D2A04202D9ACF1020319
:103F00002C44241A43EA02401EB1FC4000233460D2
:103F10007360BDE8F0874246DDE76346F1E7002ABB
:103F200079D0B2FA82F3002B3FD01946C1F12003B9
:103F300002FA01F52EFA03F20EFA01FE20FA03F35B
:103F400043EA0E034FEA154E00FA01F4B2FBFEFC01
:103F5000AFB20EFB1C201A0C0CFB07F842EA004221
:103F600090455AD9AA180CF1FF3004D2904502D9D5
:103F7000ACF102002A44A2EB08029BB2B2FBFEFCA9
:103F80000EFB1C220CFB07F743EA02439F4246D973
:103F9000EB180CF1FF3204D29F4202D9ACF10202BD
:103FA0002B44DB1B42EA004202E0AEEB020301229B
:103FB0004FEA154EAFB2B3FBFEFC200C0EFB1C33D8
:103FC0000CFB07F840EA034398452AD9EB180CF19B
:103FD000FF3004D2984502D9ACF102002B44A3EB88
:103FE0000803A4B2B3FBFEFC0EFB1C330CFB07F76B
:103FF00044EA0344A74216D92C190CF1FF3304D22A
:10400000A74202D9ACF102032C44E41B43EA00406E
:104010000F46114678E71F2188E76046ABE7624606
:10402000BFE76046DBE76346EFE7734506D916B99D
:10403000002108466DE7C6E9000EF9E7B3FA83F7F9
:1040400087B9734501D3824207D8841A6EEB030304
:1040500001209C461EB900215BE73846FAE7C6E915
:10406000004CF8E7C7F1200CBB4022FA0CF51D43C9
:1040700020FA0CF12EFA0CF30EFA07FE41EA0E01BB
:104080004FEA154900FA07F4B3FBF9F81FFA85FE69
:1040900009FB18300B0C08FB0EFA43EA00439A4563
:1040A00002FA07F240D9EB1808F1FF3004D29A4522
:1040B00002D9A8F102002B44A3EB0A0389B2B3FB97
:1040C000F9F809FB183308FB0EFE41EA03418E455F
:1040D0002CD9691808F1FF3304D28E4502D9A8F112
:1040E0000203294443EA0040A0FB0298A1EB0E0121
:1040F0004145CE46434602D306D14C4504D2B9EBE6
:10410000020E68EB05030138002EA4D0B4EB0E02BA
:1041100061EB030101FA0CFC22FA07F34CEA0303FA
:10412000F940C6E9003196E74046C5E74346D9E77E
:10413000F8B500BFF8BC08BC9E467047F8B500BF94
:08414000F8BC08BC9E46704764
:104148000006101600061016000000000102030405
:10415800000000000000000001020304060708092F
:10416800000FC93F000F494000CB9640000FC940DF
:104178000053FB4000CB164100ED2F41000F494191
:104188000031624100537B41003A8A4100CB96419D
:10419800005CA34100EDAF41007EBC41000FC94166
:1041A80000A0D5410031E24100C2EE410053FB417D
:1041B80000F20342003A0A420083104200CB164242
:1041C80000141D42005C234200A5294200ED2F4245
:1041D80000363642007E3C4200C74242000F494248
:1041E800A2000000F9000000830000006E0000003B
:1041F8004E000000440000001500000029000000E7
:10420800FC0000002700000057000000D10000005B
:10421800F500000034000000DD000000C0000000D0
:10422800DB0000006200000095000000990000001B
:104238003C00000043000000900000004100000026
:10424800FE0000005100000063000000AB00000009
:10425800DE000000BB000000C50000006100000097
:10426800B7000000240000006E0000003A000000C3
:10427800420000004D000000D2000000E0000000F5
:1042880006000000490000002E000000EA000000BF
:1042980009000000D1000000920000001C0000008E
:1042A800FE0000001D000000EB0000001C000000E4
:1042B800B100000029000000A70000003E00000037
:1042C800E80000008200000035000000F500000052
:1042D8002E000000BB000000440000008400000025
:1042E800E90000009C0000007000000026000000AB
:1042F800B40000005F0000007E00000041000000E4
:104308003900000091000000D600000039000000CC
:10431800830000005300000039000000F400000092
:104328009C000000840000005F0000008B0000007B
:10433800BD000000F9000000280000003B0000005C
:104348001F000000F800000097000000FF000000B8
:10435800DE00000005000000980000000F000000CB
:10436800EF0000002F000000110000008B0000008B
:104378005A0000000A0000006D0000001F00000045
:104388006D000000360000007E000000CF00000035
:1043980027000000CB00000009000000B700000063
:1043A8004F000000460000003F00000066000000CB
:1043B8009E0000005F000000EA0000002D000000E1
:1043C8007500000027000000BA000000C7000000C8
:1043D800EB000000E5000000F10000007B00000099
:1043E8003D0000000700000039000000F700000051
:1043F8008A0000005200000092000000EA0000005D
:104408006B000000FB0000005F000000B10000002E
:104418001F0000008D0000005D0000000800000083
:1044280056000000030000003000000046000000B5
:10443800FC0000007B0000006B000000AB000000E7
:10444800F0000000CF000000BC00000020000000C9
:104458009A000000F4000000360000001D00000073
:10446800A9000000E30000009100000061000000C6
:104478005E000000E60000001B00000008000000CD
:104488006500000099000000850000005F00000042
:1044980014000000A00000006800000040000000B8
:1044A8008D000000FF000000D80000008000000020
:1044B8004D000000730000002700000031000000DC
:1044C800060000000600000015000000560000006D
:1044D800CA00000073000000A8000000C900000026
:1044E80060000000E20000007B000000C000000047
:1044F8008C0000006B0000000000C93F0000F0398C
:104508000000DA370000A2330000842E0000502B90
:104518000000C2270000D0220000C41F0000C61BF4
:104528000000441704000000070000000900000014
:084538003CF9FF7F01000000C7
:04454000450A000820
:04454400210A000840
:0C45480001000000100000000024F4003E
:040000050800314975
:00000001FF
